:100000000C942A000C9447000C9447000C94470071
:100010000C9447000C9447000C9447000C94470044
:100020000C9447000C9447000C9447000C94470034
:100030000C9447000C9447000C9447000C94470024
:100040000C9447000C9447000C9447000C94470014
:100050000C94470011241FBECFE5D4E0DEBFCDBF16
:1000600010E0A0E6B0E0E0E7F4E002C005900D92F9
:10007000AC39B107D9F720E0ACE9B0E001C01D927E
:10008000A23AB207E1F70E9458010C9436020C9490
:1000900000009C01207F33272C5F25BBE9EFF0E0B7
:1000A0003197F1F700C0000095B3945095BB82954D
:1000B000807F8C5F85BB89EF90E00197F1F700C0EE
:1000C000000085B3845085BB08959C01207F3327B1
:1000D0002B5F25BBE9EFF0E03197F1F700C000009E
:1000E00025B3245025BB82959295907F9827807FD9
:1000F00098278B5F85BB89EF90E00197F1F700C0EF
:10010000000085B3845085BB0895CF93DF93EC0145
:100110008881882339F0219690E00E9465008991BA
:100120008111FACFDF91CF910895EF92FF920F9353
:100130001F93CF93DF93EC017B010097B1F580E330
:1001400090E00E946500F701EE0FFF1FE456FF4F9D
:100150001182108284E090E00E94490036C0F701CD
:10016000D183C0839E01ADECBCEC0E9416028C01D1
:100170001695079516950795169507959801220FE0
:10018000331FC801880F991F880F991F880F991F67
:10019000820F931F9E01281B390BC901C0960E9434
:1001A0006500E8012097D9F610C084E090E00E9435
:1001B0004900C701880F991F0F2EFCE9EF2EF0E0D0
:1001C000FF2EF02DE80EF91ECACFDF91CF911F91BF
:1001D0000F91FF90EF9008950F931F93CF93DF93AC
:1001E00000D000D000D0CDB7DEB7FE0139968E0129
:1001F0000F5F1F4F82ED94E02AE030E0B9010E94CA
:10020000020292938293862F972FE017F107B1F79E
:1002100089819A81ECE9F0E044EA50E00CC080EC7E
:1002200090E00E94490080E690E00E94850020C096
:10023000E417F507A9F0219131912817390779F7CB
:100240002B813C812817390751F72D813E81821778
:10025000930729F72F8138852817390749F3DFCF0E
:1002600080EC90E00E94490083E790E00E948500C6
:1002700086E090E00E94490026960FB6F894DEBF13
:100280000FBECDBFDF91CF911F910F91089582E0F6
:1002900090E00E94490088E290E00E9449008CE0D2
:1002A00090E00E94490086E090E00E944900089595
:1002B0001ABA8FEF87BB8BBB84BB0E944701C0E09B
:1002C000D0E011E06894BB24B6F86894CC24C5F85B
:1002D0006894DD24D4F86894EE24E3F86894FF244D
:1002E000F2F802E080E890E00E94490083E890E0A4
:1002F0000E94850087EA91E60197F1F700C00000AF
:1003000081E090E00E94490083EF91E00197F1F7CE
:1003100000C0000080E890E00E9449008BE890E077
:100320000E94850089B38E3F61F418BB80EC90E099
:100330000E944900BE0181E090E00E949500219654
:10034000D1CF89B38D3F61F408BB81EC90E00E946E
:100350004900BE0182E090E00E9495002196C2CF44
:1003600089B38B3F61F4F8BA82EC90E00E944900B7
:10037000BE0183E090E00E9495002196B3CF89B33F
:10038000873F61F4E8BA83EC90E00E944900BE0127
:1003900084E090E00E9495002196A4CF89B38F3E1F
:1003A00061F4D8BA84EC90E00E944900BE0185E077
:1003B00090E00E949500219695CF89B38F3D61F41E
:1003C000C8BA85EC90E00E944900BE0186E090E04A
:1003D0000E949500219686CF89B38F3B61F4B8BA0D
:1003E00086EC90E00E944900BE0187E090E00E9408
:1003F0009500219677CF89B38F3709F073CF0E948C
:10040000EC0070CF97FB072E16F4009407D077FD11
:1004100009D00E94220207FC05D03EF490958195F8
:100420009F4F0895709561957F4F0895A29FB001E9
:10043000B39FC001A39F01D0B29F700D811D1124F5
:10044000911D0895AA1BBB1B51E107C0AA1FBB1F2A
:10045000A617B70710F0A61BB70B881F991F5A9550
:10046000A9F780959095BC01CD010895F894FFCF30
:1004700070617373776F7264206E6F74206D617436
:1004800063680070617373777264206D6174636870
:1004900065640057454C434F4D4500456E74657289
:0C04A0002074686520706173777264003E
:00000001FF
