S017000053574954434870617373776F7264332E7372656395
S11300000C942A000C943F000C943F000C943F0085
S11300100C943F000C943F000C943F000C943F0060
S11300200C943F000C943F000C943F000C943F0050
S11300300C943F000C943F000C943F000C943F0040
S11300400C943F000C943F000C943F000C943F0030
S11300500C943F0011241FBECFE5D4E0DEBFCDBF1A
S113006010E0A0E6B0E0E2E6F3E002C005900D92F5
S1130070A03AB107D9F70E9436010C94AF010C9451
S1130080000089B38E3F41F489B38E3FE9F381E0E8
S113009088BB21E030E04DC089B38D3F41F489B382
S11300A08D3FE9F382E088BB22E030E042C089B3AF
S11300B08B3F41F489B38B3FE9F384E088BB23E0B1
S11300C030E037C089B3873F41F489B3873FE9F310
S11300D088E088BB24E030E02CC089B38F3E41F433
S11300E089B38F3EE9F380E188BB25E030E021C08D
S11300F089B38F3D41F489B38F3DE9F380E288BB36
S113010026E030E016C089B38F3B41F489B38F3BBE
S1130110E9F380E488BB27E030E00BC089B38F3774
S113012009F0AFCF89B38F37E9F380E888BB28E0C3
S113013030E0822F932F08959C01207F33272C5F7A
S113014025BBE9EFF0E03197F1F700C0000095B36B
S1130150945095BB8295807F8C5F85BB89EF90E03E
S11301600197F1F700C0000085B3845085BB089562
S11301709C01207F33272B5F25BBE9EFF0E031970B
S1130180F1F700C0000025B3245025BB8295929559
S1130190907F9827807F98278B5F85BB89EF90E0BD
S11301A00197F1F700C0000085B3845085BB089522
S11301B0CF93DF93EC018881882339F0219690E076
S11301C00E94B80089918111FACFDF91CF910895EF
S11301D00F931F93CF93DF93EC01009761F580E3B6
S11301E090E00E94B80084E090E00E949C0028C047
S11301F09E01ADECBCEC0E94A3018C011695079501
S113020016950795169507959801220F331FC80177
S1130210880F991F880F991F880F991F820F931FAA
S11302209E01281B390BC901C0960E94B800E80141
S11302302097F1F605C084E090E00E949C00D8CF9E
S1130240DF91CF911F910F91089582E090E00E9479
S11302509C0088E290E00E949C008CE090E00E9468
S11302609C0086E090E00E949C0008951ABA8FEFEB
S113027087BB8BBB84BB0E94250180E890E00E9471
S11302809C0080E690E00E94D80087EA91E60197FE
S1130290F1F700C0000081E090E00E949C0083EF31
S11302A091E00197F1F700C0000080E890E00E941F
S11302B09C0088E690E00E94D800C0E0D0E014C022
S11302C09E01220F331FCC0FDD1FCC0FDD1FCC0F7F
S11302D0DD1FC20FD31FC80FD91F84EC90E00E940A
S11302E09C00CE010E94E8000E94410088309105E4
S11302F039F7C23D94E0D90799F481E090E00E9477
S11303009C0083EF91E00197F1F700C0000080E8C2
S113031090E00E949C0089E790E00E94D800E4CF1E
S113032081E090E00E949C0083EF91E00197F1F757
S113033000C0000080E890E00E949C008AE890E001
S11303400E94D800D1CFA29FB001B39FC001A39F48
S113035001D0B29F700D811D1124911D0895F89450
S1050360FFCFC9
S113036257454C434F4D4500456E74657220746881
S113037265207061737772640050415353574F5232
S113038244204D4154434845440050415353574F30
S11303925244204E4F54204D41544348454400009A
S9030000FC
